{
  "_format": "hh-sol-artifact-1",
  "contractName": "Play",
  "sourceName": "contracts/Lock.sol",
  "abi": [
    {
      "inputs": [],
      "stateMutability": "payable",
      "type": "constructor"
    },
    {
      "inputs": [],
      "name": "maxPlay",
      "outputs": [
        {
          "internalType": "uint256",
          "name": "",
          "type": "uint256"
        }
      ],
      "stateMutability": "view",
      "type": "function"
    },
    {
      "inputs": [],
      "name": "owner",
      "outputs": [
        {
          "internalType": "address payable",
          "name": "",
          "type": "address"
        }
      ],
      "stateMutability": "view",
      "type": "function"
    },
    {
      "inputs": [
        {
          "internalType": "string",
          "name": "_choice",
          "type": "string"
        },
        {
          "internalType": "uint256",
          "name": "amount",
          "type": "uint256"
        }
      ],
      "name": "result",
      "outputs": [
        {
          "internalType": "bool",
          "name": "",
          "type": "bool"
        }
      ],
      "stateMutability": "nonpayable",
      "type": "function"
    }
  ],
  "bytecode": "0x60806040526200004f6040518060400160405280601981526020017f57652068617665206265656e20636f6e737472756374656421000000000000008152506200007760201b6200037b1760201c565b606444426200005f91906200017c565b6200006b9190620001e6565b600181905550620002dc565b62000117816040516024016200008e9190620002b8565b6040516020818303038152906040527f41304fac000000000000000000000000000000000000000000000000000000007bffffffffffffffffffffffffffffffffffffffffffffffffffffffff19166020820180517bffffffffffffffffffffffffffffffffffffffffffffffffffffffff83818316178352505050506200011a60201b60201c565b50565b60008151905060006a636f6e736f6c652e6c6f679050602083016000808483855afa5050505050565b6000819050919050565b7f4e487b7100000000000000000000000000000000000000000000000000000000600052601160045260246000fd5b6000620001898262000143565b9150620001968362000143565b9250828201905080821115620001b157620001b06200014d565b5b92915050565b7f4e487b7100000000000000000000000000000000000000000000000000000000600052601260045260246000fd5b6000620001f38262000143565b9150620002008362000143565b925082620002135762000212620001b7565b5b828206905092915050565b600081519050919050565b600082825260208201905092915050565b60005b838110156200025a5780820151818401526020810190506200023d565b60008484015250505050565b6000601f19601f8301169050919050565b600062000284826200021e565b62000290818562000229565b9350620002a28185602086016200023a565b620002ad8162000266565b840191505092915050565b60006020820190508181036000830152620002d4818462000277565b905092915050565b610bf580620002ec6000396000f3fe608060405234801561001057600080fd5b50600436106100415760003560e01c80638b27c179146100465780638da5cb5b14610064578063f24e2a2514610082575b600080fd5b61004e6100b2565b60405161005b919061054b565b60405180910390f35b61006c6100f0565b60405161007991906105a7565b60405180910390f35b61009c60048036038101906100979190610748565b610114565b6040516100a991906107bf565b60405180910390f35b60006100d5604051806060016040528060218152602001610b9f6021913961037b565b6000479050600a816100e79190610838565b90508091505090565b60008054906101000a900473ffffffffffffffffffffffffffffffffffffffff1681565b6000606460015442446101279190610869565b6101319190610869565b61013b919061089d565b60018190555060326001541115801561018f575061018e836040518060400160405280600581526020017f4865616473000000000000000000000000000000000000000000000000000000815250610414565b5b806101e3575060326001541180156101e257506101e1836040518060400160405280600581526020017f5461696c73000000000000000000000000000000000000000000000000000000815250610414565b5b5b156103325760008260026101f791906108ce565b90506102386040518060400160405280600b81526020017f596f7520776f6e212025730000000000000000000000000000000000000000008152508261046d565b4781111561027b576040517f08c379a000000000000000000000000000000000000000000000000000000000815260040161027290610993565b60405180910390fd5b60003373ffffffffffffffffffffffffffffffffffffffff16826040516102a1906109e4565b60006040518083038185875af1925050503d80600081146102de576040519150601f19603f3d011682016040523d82523d6000602084013e6102e3565b606091505b5050905080610327576040517f08c379a000000000000000000000000000000000000000000000000000000000815260040161031e90610a6b565b60405180910390fd5b600192505050610375565b6103706040518060400160405280600981526020017f596f75206c6f737421000000000000000000000000000000000000000000000081525061037b565b600090505b92915050565b6104118160405160240161038f9190610af9565b6040516020818303038152906040527f41304fac000000000000000000000000000000000000000000000000000000007bffffffffffffffffffffffffffffffffffffffffffffffffffffffff19166020820180517bffffffffffffffffffffffffffffffffffffffffffffffffffffffff8381831617835250505050610509565b50565b6000816040516020016104279190610b57565b604051602081830303815290604052805190602001208360405160200161044e9190610b57565b6040516020818303038152906040528051906020012014905092915050565b6105058282604051602401610483929190610b6e565b6040516020818303038152906040527fb60e72cc000000000000000000000000000000000000000000000000000000007bffffffffffffffffffffffffffffffffffffffffffffffffffffffff19166020820180517bffffffffffffffffffffffffffffffffffffffffffffffffffffffff8381831617835250505050610509565b5050565b60008151905060006a636f6e736f6c652e6c6f679050602083016000808483855afa5050505050565b6000819050919050565b61054581610532565b82525050565b6000602082019050610560600083018461053c565b92915050565b600073ffffffffffffffffffffffffffffffffffffffff82169050919050565b600061059182610566565b9050919050565b6105a181610586565b82525050565b60006020820190506105bc6000830184610598565b92915050565b6000604051905090565b600080fd5b600080fd5b600080fd5b600080fd5b6000601f19601f8301169050919050565b7f4e487b7100000000000000000000000000000000000000000000000000000000600052604160045260246000fd5b610629826105e0565b810181811067ffffffffffffffff82111715610648576106476105f1565b5b80604052505050565b600061065b6105c2565b90506106678282610620565b919050565b600067ffffffffffffffff821115610687576106866105f1565b5b610690826105e0565b9050602081019050919050565b82818337600083830152505050565b60006106bf6106ba8461066c565b610651565b9050828152602081018484840111156106db576106da6105db565b5b6106e684828561069d565b509392505050565b600082601f830112610703576107026105d6565b5b81356107138482602086016106ac565b91505092915050565b61072581610532565b811461073057600080fd5b50565b6000813590506107428161071c565b92915050565b6000806040838503121561075f5761075e6105cc565b5b600083013567ffffffffffffffff81111561077d5761077c6105d1565b5b610789858286016106ee565b925050602061079a85828601610733565b9150509250929050565b60008115159050919050565b6107b9816107a4565b82525050565b60006020820190506107d460008301846107b0565b92915050565b7f4e487b7100000000000000000000000000000000000000000000000000000000600052601260045260246000fd5b7f4e487b7100000000000000000000000000000000000000000000000000000000600052601160045260246000fd5b600061084382610532565b915061084e83610532565b92508261085e5761085d6107da565b5b828204905092915050565b600061087482610532565b915061087f83610532565b925082820190508082111561089757610896610809565b5b92915050565b60006108a882610532565b91506108b383610532565b9250826108c3576108c26107da565b5b828206905092915050565b60006108d982610532565b91506108e483610532565b92508282026108f281610532565b9150828204841483151761090957610908610809565b5b5092915050565b600082825260208201905092915050565b7f547279696e6720746f207769746864726177206d6f7265206d6f6e657920746860008201527f616e207468657920636f6e7472616374206861732e0000000000000000000000602082015250565b600061097d603583610910565b915061098882610921565b604082019050919050565b600060208201905081810360008301526109ac81610970565b9050919050565b600081905092915050565b50565b60006109ce6000836109b3565b91506109d9826109be565b600082019050919050565b60006109ef826109c1565b9150819050919050565b7f4661696c656420746f207769746864726177206d6f6e65792066726f6d20636f60008201527f6e74726163742e00000000000000000000000000000000000000000000000000602082015250565b6000610a55602783610910565b9150610a60826109f9565b604082019050919050565b60006020820190508181036000830152610a8481610a48565b9050919050565b600081519050919050565b60005b83811015610ab4578082015181840152602081019050610a99565b60008484015250505050565b6000610acb82610a8b565b610ad58185610910565b9350610ae5818560208601610a96565b610aee816105e0565b840191505092915050565b60006020820190508181036000830152610b138184610ac0565b905092915050565b600081905092915050565b6000610b3182610a8b565b610b3b8185610b1b565b9350610b4b818560208601610a96565b80840191505092915050565b6000610b638284610b26565b915081905092915050565b60006040820190508181036000830152610b888185610ac0565b9050610b97602083018461053c565b939250505056fe57652068617665206265656e207175657269656420666f722062616c616e636521a2646970667358221220edc6a602488badfc62b5be3bb45668747ed7338c7546f236398dee09f4cb43d864736f6c63430008110033",
  "linkReferences": {},
  "deployedLinkReferences": {}
}